:0400000007EF00F016
:0A0008004B8297ED09F0C3EF0BF0F7
:100800000020202020202020202020202020202008
:1008100020004269656E76656E69646F00456E20E2
:10082000526573706F736F00456E65726769610022
:10083000496E642E00496E662E004D434C520000F6
:100840000F0EC16E000E956EF00E936E000E966E3A
:10085000F00E946EF19E08EC09F0820ED56EF294C3
:10086000C20ED76EF70ED66EF28AF28ED58EC40EF9
:10087000D36E2DEC0CF0010ED0A6000ED0A8000E09
:10088000E8A008D02DEC0CF0D098280E136EF0ECF8
:100890000AF014D0D0A602D0010E01D0000E1B6EBB
:1008A000D0B402D0010E01D0000E1B10E8A006D07B
:1008B0002DEC0CF03A0E136EF0EC0AF0020E1C6EEA
:1008C000450E1B6EAA0EE82EFED71B2EFCD71C2E43
:1008D000FAD72DEC0CF0430E136E000EA5EC0BF0C6
:1008E000820E17EC0CF0000E0CEC0CF0120E136ED6
:1008F000F0EC0AF0000E0CEC0CF0020E1C6EE70E91
:100900001B6E000EE82EFED71B2EFCD71C2EFAD72E
:1009100000D0800E17EC0CF0010E136EF0EC0AF014
:10092000000E8A6E000E2E6E000E2D6E7BEC08F00F
:100930003A6ED6EC09F0430E3A18D8A42DD0C00E6A
:1009400017EC0CF0200E416E200E406E200E3F6E14
:10095000000E386E000E376E000E366E000E356ECD
:10096000000E346E000E336E000E296E000E2A6EDD
:10097000000E2B6E000E2C6E000E396E800E17ECE2
:100980000CF0010E136EF0EC0AF0C00E17EC0CF038
:10099000800E17EC0CF0C4D7200E4018D8B408D045
:1009A000200E3F18D8B404D0200E4118D8A4ADD0E2
:1009B000200E4118D8A42BD02B0E3A18D8B410D042
:1009C0002D0E3A18D8B40CD02F0E3A18D8B408D03F
:1009D000780E3A18D8B404D03D0E3A18D8B417D0CF
:1009E000200E4018D8B413D0200E3F18D8A40FD032
:1009F000810E17EC0CF03A500CEC0CF03AC041F0C0
:100A0000210E3A18D8A46ED3410E3F6E6BD3200E40
:100A10004018D8A437D02B0E3A18D8A420D02D0EC9
:100A20003A18D8A41CD02F0E3A18D8A418D0780E93
:100A30003A18D8A414D03D0E3A18D8A410D0430EBA
:100A40003A18D8A40CD0210E3A18D8A408D05E0EBB
:100A50003A18D8A404D03D0E3A18D8B413D0200EBA
:100A60004118D8A40FD0800E17EC0CF03A500CECC3
:100A70000CF03AC040F0D00E3A24376E386AFF0EC0
:100A8000382230D3200E3F18D8A42CD3200E411882
:100A9000D8B428D3210E4118D8B424D3200E40183E
:100AA000D8B420D32B0E3A18D8A420D02D0E3A1843
:100AB000D8A41CD02F0E3A18D8A418D0780E3A1803
:100AC000D8A414D03D0E3A18D8A410D0430E3A182A
:100AD000D8A40CD0210E3A18D8A408D05E0E3A182B
:100AE000D8A404D03D0E3A18D8B4FCD2820E17EC2C
:100AF0000CF03A500CEC0CF03AC03FF0D00E3A2417
:100B0000356E366AFF0E3622EDD23D0E3A18D8A465
:100B1000E6D2200E4018D8B4E2D2200E4118D8B444
:100B2000DED2200E3F18D8B4DAD2210E4118D8A454
:100B300004D0820E17EC0CF003D0830E17EC0CF0EF
:100B40003D0E0CEC0CF0EFD0355037241B6E3650B8
:100B500038201C6E1BC025F01CC026F0276A286AAE
:100B600025C00EF026C00FF027C010F028C011F0ED
:100B7000640E126E000E136E000E146E000E156ED3
:100B800046EC0AF00EC029F00FC02AF010C02BF07E
:100B900011C02CF0DCD03550375C1B6E3650385805
:100BA000D8D737C00EF038C00FF035C010F036C0BF
:100BB00011F0F9EC0BF00EC025F00FC026F0CED7E7
:100BC00035503610D8B42FD037503810D8B4BFD0E5
:100BD00037C014F038C015F035C016F036C017F025
:100BE000C7EC0AF014C025F015C026F0276A286A61
:100BF00037C00EF038C00FF0000E116E640E106E8C
:100C0000F9EC0BF00EC014F00FC015F035C016F063
:100C100036C017F0C7EC0AF014C029F015C02AF04E
:100C20002B6A2C6A94D037503810D8B406D035507F
:100C30003610D8A402D0E80E09D037503810D8A406
:100C40008FD735503610D8A48BD7E90E256E030EFA
:100C5000266E000E276E000E286E82D737C025F054
:100C600038C026F0276A286A21D0FF0E37241B6E71
:100C7000FF0E38201C6E1BC00EF01CC00FF0106A57
:100C8000116A25C012F026C013F027C014F028C046
:100C900015F046EC0AF00EC025F00FC026F010C08B
:100CA00027F011C028F03706D8A038063850DDE10B
:100CB000020E375CD8A054D7D8D737C025F038C03B
:100CC00026F0276A286AFF0E3524356EFF0E36207F
:100CD000366E1BD037C00EF038C00FF0106A116AA4
:100CE00025C012F026C013F027C014F028C015F05C
:100CF00046EC0AF00EC025F00FC026F010C027F019
:100D000011C028F03506D8A0360635503610D8B4B4
:100D100027D7E0D7000E256E000E266E000E276E38
:100D2000000E286E14D04150210AD8B497D70A0A71
:100D3000D8B40AD7060AD8B42ED7020AD8B440D7F6
:100D4000710AD8B4BAD7260AD8B42BD7E3D7210E64
:100D50004118D8A404D0830E17EC0CF003D0840EF5
:100D600017EC0CF025C00EF026C00FF027C010F0D5
:100D700028C011F09C0E126EFF0E136EFF0E146E43
:100D8000FF0E156E46EC0AF029500E241B6E2A50F9
:100D90000F201C6E2B5010201D6E2C5011201E6E2B
:100DA0001B501C101D101E10D8B47AD025C00EF098
:100DB00026C00FF027C010F028C011F09C0E126E54
:100DC000FF0E136EFF0E146EFF0E156E46EC0AF04A
:100DD00029500E241B6E2A500F201C6E2B50102001
:100DE0001D6E2C5011201E6E1B501C101D101E104D
:100DF000D8B456D0000E226E000E216E22BE08D04E
:100E0000225005E1030E215CD8B06CD101D06AD12B
:100E100037C014F038C015F035C016F036C017F0E2
:100E2000C7EC0AF014C025F015C026F0276A286A1E
:100E300037C00EF038C00FF035C010F036C011F0DA
:100E400084EC0BF00EC03BF00FC03CF03D6A3E6AF4
:100E50002550300F0CEC0CF021502210D8A409D0F2
:100E60003B503C103D103E10D8B403D02C0E0CEC7F
:100E70000CF03B503C103D103E10D8B433D13BC079
:100E80000EF03CC00FF0000E116E0A0E106EF9EC61
:100E90000BF00EC037F00FC038F0214A222AAED72F
:100EA00028502710261004E1520E255CD8A029D026
:100EB000E80E251806E1030E261827102810D8B4CE
:100EC00020D0E90E251806E1030E26182710281059
:100ED000D8B417D02D0E4118D8A413D02D0E0CEC79
:100EE0000CF0850E17EC0CF0281E271E261E256C14
:100EF000000E2622272228222550300F0CEC0CF061
:100F0000F1D0E80E25180BE1030E26182710281043
:100F1000D8A405D0350E136EF0EC0AF0E3D0E90E3C
:100F200025180BE1030E261827102810D8A405D089
:100F3000300E136EF0EC0AF0D5D028502710261092
:100F400004E10A0E255CD8A0C5D0E80E251806E1FC
:100F5000030E261827102810D8B4BCD0E90E251887
:100F600006E1030E261827102810D8B4B3D0000EBF
:100F7000246E090E236E24BEB5D00A0E296E000E13
:100F80002A6E000E2B6E000E2C6EFF0E23241F6E99
:100F9000FF0E2420206E20BE23D0205003E11F042A
:100FA000D8A01ED029C00EF02AC00FF02BC010F020
:100FB0002CC011F00A0E126E000E136E000E146E8D
:100FC000000E156E46EC0AF00EC029F00FC02AF094
:100FD00010C02BF011C02CF01F06D8A02006DBD7C4
:100FE00025C00EF026C00FF027C010F028C011F069
:100FF00029C012F02AC013F02BC014F02CC015F039
:1010000056EC09F00E500F1010101110D8B433D058
:10101000010E396E25C00EF026C00FF027C010F06B
:1010200028C011F029C012F02AC013F02BC014F010
:101030002CC015F056EC09F00E50300F0CEC0CF0F3
:1010400025C00EF026C00FF027C010F028C011F008
:1010500029C012F02AC013F02BC014F02CC015F0D8
:1010600013EC0AF00EC025F00FC026F010C027F0D8
:1010700011C028F02BD025C00EF026C00FF027C0DD
:1010800010F028C011F029C012F02AC013F02BC0B4
:1010900014F02CC015F056EC09F00E500F10101083
:1010A0001110D8A413D03950D8B410D0285027101C
:1010B000261009E10A0E255CD8B005D02550300F66
:1010C0000CEC0CF003D0300E0CEC0CF02306D8A086
:1010D000240651D72550300F0CEC0CF003D0200E15
:1010E0000CEC0CF0E40E1B6E440EE82EFED71B2E0B
:1010F000FCD700D015D481B881AA04D081AC02D02D
:1011000081BEF9D7000E2E6E010E2D6EFE0E8A6E78
:1011100081B802D0310E120081BA02D0320E120014
:1011200081BC02D0330E120082BC02D0010E01D06D
:10113000000E0E6E81BE02D0010E01D0000E0E1404
:10114000E8A002D02B0E120082AC02D0010E01D01A
:10115000000E0E6E81BE02D0010E01D0000E0E14E4
:10116000E8A002D0210E1200FD0E8A6E81B802D0D6
:10117000340E120081BA02D0350E120081BC02D0AA
:10118000360E120082BC02D0010E01D0000E0E6E8F
:1011900081BE02D0010E01D0000E0E14E8A002D0D4
:1011A0002D0E120082AC02D0010E01D0000E0E6E88
:1011B00081BE02D0010E01D0000E0E14E8A002D0B4
:1011C0005E0E1200FB0E8A6E81B802D0370E12003E
:1011D00081BA02D0380E120081BC02D0390E120042
:1011E00081BE02D02F0E1200F70E8A6E81B802D097
:1011F000430E120081BA02D0300E120081BC02D020
:101200003D0E120081BE02D0780E12003F0E120079
:101210008D90040E4218D8A404D08C500F0B3009C6
:1012200001D03F0E8C6E41EC0CF0010E71EC0AF017
:10123000040E4218D8A404D08C500F0B300901D0F2
:101240003F0E8C6E41EC0CF0030E71EC0AF0040EB4
:101250004218D8A404D08C500F0B300901D03F0E97
:101260008C6E41EC0CF0040E71EC0AF0040E421886
:10127000D8A411D08C500F0B20098C6E41EC0CF0CF
:10128000040E71EC0AF02F0E3EEC0BF041EC0CF06A
:10129000040E71EC0AF02DEC0CF00F0E3EEC0BF08E
:1012A00041EC0CF0040E71EC0AF01200000E166E08
:1012B000000E176E000E186E000E196E12501310ED
:1012C00014101510D8B42AD0010E1A6E06D0D8907A
:1012D00012361336143615361A2A15AEF8D7D890AA
:1012E000163617361836193612500E5C13500F5832
:1012F0001450105815501158D8A009D012500E5E35
:1013000013500F5A1450105A1550115A1680D89075
:1013100015321432133212321A2EE1D716C00EF0E3
:1013200017C00FF018C010F019C011F0120006001D
:10133000F6CF0AF0F7CF0BF0F8CF0CF0F5CF0DF0A9
:10134000F2A419D02D502E10D8A407D0010E2F24AE
:101350002F6E000E3020306E04D0000E306E000E66
:101360002F6EF2948DB402D08D8401D08D94C20E74
:10137000D76EF70ED66E140E2F183010D8A40CD0DE
:101380002D502E10D8A408D037EC0CF01D0E066E90
:1013900017EC0BF00300FFD70DC0F5FF0CC0F8FFF2
:1013A0000BC0F7FF0AC0F6FF4B921100080E311870
:1013B0003210D8A414D0000E326E000E316E0FD051
:1013C000000E0BD0050E09D0060E07D0030E05D077
:1013D000020E03D0040E01D0070E8B6E21D031C057
:1013E0000EF032C00FF00F50000AD8A419D00E50E2
:1013F000000AD8B4E5D7010AD8B4E4D7030AD8B4B0
:10140000E3D7010AD8B4E2D7070AD8B4E1D7010A72
:10141000D8B4DAD7030AD8B4DDD7010AD8B4DCD7F8
:10142000314A322A12001250131014101510D8B479
:1014300024D0010E166E06D0D8901236133614360C
:101440001536162A15AEF8D712500E5C13500F58E9
:101450001450105815501158D8A008D012500E5ED4
:1014600013500F5A1450105A1550115AD890153263
:10147000143213321232162EE7D70EC00EF00FC000
:101480000FF010C010F011C011F01200000E166E17
:10149000000E176E000E186E000E196E0EA008D00A
:1014A00012501626135017221450182215501922C4
:1014B000D8901236133614361536D89011321032B1
:1014C0000F320E320E500F1010101110D8A4E6D7A4
:1014D00016C00EF017C00FF018C010F019C011F0B0
:1014E00012000F6E1BD0050E0E6EDE0EE82EFED71C
:1014F0000E2EFCD71200530EE82EFED700F0350E4C
:10150000E82EFED700F01200080EE82EFED700F0FD
:101510001200030EE82EFED700F012000F50010A51
:10152000D8B4E1D7030AD8B4E6D7010AD8B4ECD7C7
:10153000070AD8A41200EDD7026E1BD0050E016E6B
:10154000DE0EE82EFED7012EFCD71200530EE82E39
:10155000FED700F0350EE82EFED700F01200080E80
:10156000E82EFED700F01200030EE82EFED700F0A2
:1015700012000250010AD8B4E1D7030AD8B4E6D762
:10158000010AD8B4ECD7070AD8A41200EDD7000E90
:10159000196E000E186E16501710D8B41CD0010E1C
:1015A0001A6E04D0D890163617361A2A17AEFAD704
:1015B000D890183619361650145C17501558D8A004
:1015C00005D01650145E1750155A1880D89017324F
:1015D00016321A2EEDD718C014F019C015F01200EB
:1015E000000E166E000E156E13501524146E14C0E6
:1015F000F6FF080EF76E0800F5500009D8B4120087
:1016000013501524146E14C0F6FF080EF76E080070
:10161000F5500CEC0CF0154A162A16BEE5D71650FC
:1016200005E1100E155CD8B01200DED71200000ED6
:10163000096E000E086E06500824076E07C0F6FFFC
:10164000080EF76E0800F5500009D8B412000650D5
:101650000824076E07C0F6FF080EF76E0800F55065
:1016600022EC0CF0084A092A09BEE5D7095005E129
:10167000100E085CD8B01200DED71200116E040EF6
:101680004218D8A417D011C010F0F00E10168C50CC
:101690000F0B10108C6E41EC0CF0010E71EC0AF087
:1016A00011C010F0103AF00E10168C500F0B1010E5
:1016B0008C6E1200080E4218D8A4120011C08CFFC4
:1016C0001200046E040E4218D8A417D004C003F010
:1016D000F00E03168C500F0B03108C6E48EC0CF0C0
:1016E000010E9CEC0AF004C003F0033AF00E03165E
:1016F0008C500F0B03108C6E1200080E4218D8A4E9
:10170000120004C08CFF120010501110D8B418D071
:10171000010E126E04D0D89010361136122A11AE76
:10172000FAD710500E5C11500F58D8A004D01050AA
:101730000E5E11500F5AD89011321032122EF1D77E
:101740000EC00EF00FC00FF01200146E1450080DF2
:10175000F350400FE0EC0BF0000E166E000E156E0D
:1017600013501524D96EDA6ADF500CEC0CF0154AD0
:10177000162A16BEF5D7165005E1080E155CD8B02E
:101780001200EED712009E0EF66E180EF76E000EC7
:10179000F86E00EE3FF010EE0CF00900F5CFEEFF12
:1017A000E550E150FAE100EE25F01A0EEE6AE80687
:1017B000FDE14B904B92000EF86E000120EF04F01B
:1017C0000F6E8D900F50F00B8C6E8D8200F08D920D
:1017D00000F00FC00EF00F0E0E160E38F00B8C6ED0
:1017E0008D8200F08D9200F0A60EE82EFED700D07C
:1017F00012000E501002F3CF12F0F4CF13F00E507F
:101800001102F35013260F501002F350132612C08A
:101810000EF013C00FF01200126E8D8012503EECCD
:101820000BF041EC0CF0040E71EC0AF01200126E99
:101830008D9012503EEC0BF041EC0CF0040E71EC6C
:101840000AF01200056E8D80055061EC0BF048EC3B
:101850000CF0040E9CEC0AF012008D90010E3EEC90
:101860000BF041EC0CF0020E71EC0AF012008D90BE
:10187000010E61EC0BF048EC0CF0020E9CEC0AF04F
:1018800012008D82030EE82EFED700F08D9212001A
:101890008D82030EE82EFED700F08D9212002020DC
:0A18A0002008001B1F1F0E040000AB
:020000040020DA
:08000000FFFFFFFFFFFFFFFF00
:020000040030CA
:0E00000000091F1EFF8181FF0FC00FE00F409F
:00000001FF
