:0400000007EF00F016
:0A000800458284ED09F092EF0BF041
:100800000020202020202020202020202020202008
:100810002000456E20526573706F736F00456E65E2
:100820007267696100496E642E00496E662E004D44
:05083000434C520000E2
:100836000F0EC16E000E956EF00E936E000E966E44
:10084600F00E946EF19EF5EC08F0820ED56EF294E1
:10085600C20ED76EF70ED66EF28AF28ED58EC40E03
:10086600D36E20EE39F010EE60F0070EDBCFE3FF1B
:10087600E806FCE2FDEC0BF0010ED0A6000ED0A8B7
:10088600000EE8A008D0FDEC0BF0D0981D0E136EFC
:10089600DDEC0AF014D0D0A602D0010E01D0000E75
:1008A6001B6ED0B402D0010E01D0000E1B10E8A0C2
:1008B60006D0FDEC0BF02F0E136EDDEC0AF0030EE6
:1008C6001C6E8A0E1B6E560EE82EFED71B2EFCD70C
:1008D6001C2EFAD7FDEC0BF0000E8A6E000E286E69
:1008E600000E276E600E136E000EAFEC0BF0000EBE
:1008F600E7EC0BF068EC08F0346EC3EC09F0430E3D
:100906003418D8A42DD0C00EDCEC0BF0200E436EAC
:10091600200E426E200E416E000E326E000E316EBB
:10092600000E306E000E2F6E000E2E6E000E2D6E17
:10093600000E236E000E246E000E256E000E266E2F
:10094600000E336E800EDCEC0BF0010E136EDDEC48
:100956000AF0C00EDCEC0BF0800EDCEC0BF0BCD722
:10096600200E4218D8B408D0200E4118D8B404D0AE
:10097600200E4318D8A4ADD0200E4318D8A42BD0EF
:100986002B0E3418D8B410D02D0E3418D8B40CD081
:100996002F0E3418D8B408D0780E3418D8B404D032
:1009A6003D0E3418D8B417D0200E4218D8B413D040
:1009B600200E4118D8A40FD0810EDCEC0BF0345079
:1009C600E7EC0BF034C043F0210E3418D8A474D3EE
:1009D600410E416E71D3200E4218D8A437D02B0E8B
:1009E6003418D8A420D02D0E3418D8A41CD02F0E1D
:1009F6003418D8A418D0780E3418D8A414D03D0EC4
:100A06003418D8A410D0430E3418D8A40CD0210E14
:100A16003418D8A408D05E0E3418D8A404D03D0EDD
:100A26003418D8B413D0200E4318D8A40FD0800E93
:100A3600DCEC0BF03450E7EC0BF034C042F0D00E97
:100A46003424316E326AFF0E322236D3200E41181C
:100A5600D8A432D3200E4318D8B42ED3210E43186F
:100A6600D8B42AD3200E4218D8B426D32B0E341865
:100A7600D8A420D02D0E3418D8A41CD02F0E34188C
:100A8600D8A418D0780E3418D8A414D03D0E341833
:100A9600D8A410D0430E3418D8A40CD0210E341884
:100AA600D8A408D05E0E3418D8A404D03D0E34184D
:100AB600D8B402D3820EDCEC0BF03450E7EC0BF02A
:100AC60034C041F0D00E34242F6E306AFF0E30222F
:100AD600F3D23D0E3418D8A4ECD2200E4218D8B466
:100AE600E8D2200E4318D8B4E4D2200E4118D8B468
:100AF600E0D2210E4318D8A404D0820EDCEC0BF011
:100B060003D0830EDCEC0BF03D0EE7EC0BF0EFD0E0
:100B16002F5031241B6E305032201C6E1BC01FF02C
:100B26001CC020F0216A226A1FC00EF020C00FF000
:100B360021C010F022C011F0640E126E000E136E6A
:100B4600000E146E000E156E33EC0AF00EC023F084
:100B56000FC024F010C025F011C026F0DCD02F50B5
:100B6600315C1B6E30503258D8D731C00EF032C0CF
:100B76000FF02FC010F030C011F0C9EC0BF00EC012
:100B86001FF00FC020F0CED72F503010D8B42FD082
:100B960031503210D8B4BFD031C014F032C015F085
:100BA6002FC016F030C017F0B4EC0AF014C01FF0D6
:100BB60015C020F0216A226A31C00EF032C00FF053
:100BC600000E116E640E106EC9EC0BF00EC014F020
:100BD6000FC015F02FC016F030C017F0B4EC0AF0B5
:100BE60014C023F015C024F0256A266A94D031502B
:100BF6003210D8B406D02F503010D8A402D0E80E48
:100C060009D031503210D8A48FD72F503010D8A425
:100C16008BD7E90E1F6E030E206E000E216E000E9E
:100C2600226E82D731C01FF032C020F0216A226ABC
:100C360021D0FF0E31241B6EFF0E32201C6E1BC00E
:100C46000EF01CC00FF0106A116A1FC012F020C00F
:100C560013F021C014F022C015F033EC0AF00EC0D8
:100C66001FF00FC020F010C021F011C022F0310695
:100C7600D8A032063250DDE1020E315CD8A054D73E
:100C8600D8D731C01FF032C020F0216A226AFF0E89
:100C96002F242F6EFF0E3020306E1BD031C00EF089
:100CA60032C00FF0106A116A1FC012F020C013F094
:100CB60021C014F022C015F033EC0AF00EC01FF06C
:100CC6000FC020F010C021F011C022F02F06D8A0CE
:100CD60030062F503010D8B427D7E0D7000E1F6E3D
:100CE600000E206E000E216E000E226E14D04350B0
:100CF600210AD8B497D70A0AD8B40AD7060AD8B4AC
:100D06002ED7020AD8B440D7710AD8B4BAD7260A61
:100D1600D8B42BD7E3D7210E4318D8A404D0830E1A
:100D2600DCEC0BF003D0840EDCEC0BF01FC00EF0F5
:100D360020C00FF021C010F022C011F09C0E126EE0
:100D4600FF0E136EFF0E146EFF0E156E33EC0AF0D7
:100D560023500E241B6E24500F201C6E255010208D
:100D66001D6E265011201E6E1B501C101D101E10CD
:100D7600D8B47DD01FC00EF020C00FF021C010F0F7
:100D860022C011F09C0E126EFF0E136EFF0E146E33
:100D9600FF0E156E33EC0AF023500E241B6E245002
:100DA6000F201C6E255010201D6E265011201E6E21
:100DB6001B501C101D101E10D8B459D0000E000177
:100DC6006B6F000E6A6F6BBF08D06B5105E1030EA7
:100DD6006A5DD8B071D101D06FD131C014F032C084
:100DE60015F02FC016F030C017F0B4EC0AF014C09E
:100DF6001FF015C020F0216A226A31C00EF032C001
:100E06000FF02FC010F030C011F071EC0BF00EC0D7
:100E160035F00FC036F0376A386A1F50300FE7ECEE
:100E26000BF000016A516B11D8A409D03550361069
:100E360037103810D8B403D02C0EE7EC0BF0355031
:100E4600361037103810D8B437D135C00EF036C04A
:100E56000FF0000E116E0A0E106EC9EC0BF00EC0EC
:100E660031F00FC032F000016A4B6B2BACD7225029
:100E76002110201004E1520E1F5CD8A029D0E80EE4
:100E86001F1806E1030E201821102210D8B420D016
:100E9600E90E1F1806E1030E201821102210D8B4FF
:100EA60017D02D0E4318D8A413D02D0EE7EC0BF057
:100EB600850EDCEC0BF0221E211E201E1F6C000E80
:100EC6002022212222221F50300FE7EC0BF0F4D013
:100ED600E80E1F180BE1030E201821102210D8A4CB
:100EE60005D02A0E136EDDEC0AF0E6D0E90E1F18C7
:100EF6000BE1030E201821102210D8A405D0250ED0
:100F0600136EDDEC0AF0D8D022502110201004E137
:100F16000A0E1F5CD8A0C8D0E80E1F1806E1030E03
:100F2600201821102210D8B4BFD0E90E1F1806E1F0
:100F3600030E201821102210D8B4B6D0000E0001DE
:100F46006D6F090E6C6F6DBFB7D00A0E236E000E63
:100F5600246E000E256E000E266EFF0E6C25686F41
:100F6600FF0E6D21696F69BF24D0695103E16805E1
:100F7600D8A01FD023C00EF024C00FF025C010F05B
:100F860026C011F00A0E126E000E136E000E146EBD
:100F9600000E156E33EC0AF00EC023F00FC024F0DD
:100FA60010C025F011C026F000016807D8A0690717
:100FB600DAD71FC00EF020C00FF021C010F022C0FB
:100FC60011F023C012F024C013F025C014F026C07F
:100FD60015F043EC09F00E500F1010101110D8B494
:100FE60033D0010E336E1FC00EF020C00FF021C0AB
:100FF60010F022C011F023C012F024C013F025C057
:1010060014F026C015F043EC09F00E50300FE7EC53
:101016000BF01FC00EF020C00FF021C010F022C050
:1010260011F023C012F024C013F025C014F026C01E
:1010360015F000EC0AF00EC01FF00FC020F010C033
:1010460021F011C022F02BD01FC00EF020C00FF0EF
:1010560021C010F022C011F023C012F024C013F0FA
:1010660025C014F026C015F043EC09F00E500F1001
:1010760010101110D8A413D03350D8B410D0225069
:101086002110201009E10A0E1F5CD8B005D01F50B0
:10109600300FE7EC0BF003D0300EE7EC0BF000015D
:1010A6006C07D8A06D074FD71F50300FE7EC0BF039
:1010B60003D0200EE7EC0BF0E40E1B6E440EE82E78
:1010C600FED71B2EFCD700D007D481B881AA04D046
:1010D60081AC02D081BEF9D7000E286E010E276EB4
:1010E600FE0E8A6E81B802D0310E120081BA02D08D
:1010F600320E120081BC02D0330E120082BC02D026
:10110600010E01D0000E0E6E81BE02D0010E01D07E
:10111600000E0E14E8A002D02B0E120082AC02D0F4
:10112600010E01D0000E0E6E81BE02D0010E01D05E
:10113600000E0E14E8A002D0210E1200FD0E8A6EDB
:1011460081B802D0340E120081BA02D0350E1200D8
:1011560081BC02D0360E120082BC02D0010E01D034
:10116600000E0E6E81BE02D0010E01D0000E0E14CE
:10117600E8A002D02D0E120082AC02D0010E01D0E2
:10118600000E0E6E81BE02D0010E01D0000E0E14AE
:10119600E8A002D05E0E1200FB0E8A6E81B802D065
:1011A600370E120081BA02D0380E120081BC02D06E
:1011B600390E120081BE02D02F0E1200F70E8A6E73
:1011C60081B802D0430E120081BA02D0300E12004E
:1011D60081BC02D03D0E120081BE02D0780E1200F4
:1011E6003F0E12008D90040E4418D8A404D08C50E3
:1011F6000F0B300901D03F0E8C6E11EC0CF0010E76
:101206005EEC0AF0040E4418D8A404D08C500F0BE0
:10121600300901D03F0E8C6E11EC0CF0030E5EEC23
:101226000AF0040E4418D8A404D08C500F0B3009D1
:1012360001D03F0E8C6E11EC0CF0040E5EEC0AF041
:10124600040E4418D8A411D08C500F0B20098C6EB4
:1012560011EC0CF0040E5EEC0AF02F0E2BEC0BF0EA
:1012660011EC0CF0040E5EEC0AF0FDEC0BF00F0E28
:101276002BEC0BF011EC0CF0040E5EEC0AF01200F5
:10128600000E166E000E176E000E186E000E196E0A
:101296001250131014101510D8B42AD0010E1A6E5D
:1012A60006D0D89012361336143615361A2A15AECD
:1012B600F8D7D890163617361836193612500E5CEF
:1012C60013500F581450105815501158D8A009D063
:1012D60012500E5E13500F5A1450105A1550115AD0
:1012E6001680D89015321432133212321A2EE1D7E4
:1012F60016C00EF017C00FF018C010F019C011F08C
:1013060012000600F6CF0AF0F7CF0BF0F8CF0CF07C
:10131600F5CF0DF0F2A419D027502810D8A407D085
:10132600010E2924296E000E2A202A6E04D0000EF2
:101336002A6E000E296EF2948DB402D08D8401D0EF
:101346008D94C20ED76EF70ED66E140E29182A107B
:10135600D8A40CD027502810D8A408D007EC0CF03D
:10136600120E066E04EC0BF00300FFD70DC0F5FF5E
:101376000CC0F8FF0BC0F7FF0AC0F6FF459211003C
:10138600080E2B182C10D8A414D0000E2C6E000EAC
:101396002B6E0FD0000E0BD0050E09D0060E07D00F
:1013A600030E05D0020E03D0040E01D0070E8B6E7D
:1013B60021D02BC00EF02CC00FF00F50000AD8A47D
:1013C60019D00E50000AD8B4E5D7010AD8B4E4D72C
:1013D600030AD8B4E3D7010AD8B4E2D7070AD8B4C7
:1013E600E1D7010AD8B4DAD7030AD8B4DDD7010A9F
:1013F600D8B4DCD72B4A2C2A120012501310141022
:101406001510D8B424D0010E166E06D0D890123618
:10141600133614361536162A15AEF8D712500E5C4A
:1014260013500F581450105815501158D8A008D002
:1014360012500E5E13500F5A1450105A1550115A6E
:10144600D8901532143213321232162EE7D70EC048
:101456000EF00FC00FF010C010F011C011F0120006
:10146600000E166E000E176E000E186E000E196E28
:101476000EA008D012501626135017221450182208
:1014860015501922D8901236133614361536D890C0
:10149600113210320F320E320E500F101010111082
:1014A600D8A4E6D716C00EF017C00FF018C010F07B
:1014B60019C011F012000F6E1BD0050E0E6EDE0E57
:1014C600E82EFED70E2EFCD71200530EE82EFED7BE
:1014D60000F0350EE82EFED700F01200080EE82EBA
:1014E600FED700F01200030EE82EFED700F0120021
:1014F6000F50010AD8B4E1D7030AD8B4E6D7010AD7
:10150600D8B4ECD7070AD8A41200EDD7026E1BD0C8
:10151600050E016EDE0EE82EFED7012EFCD7120058
:10152600530EE82EFED700F0350EE82EFED700F05B
:101536001200080EE82EFED700F01200030EE82E69
:10154600FED700F012000250010AD8B4E1D7030A10
:10155600D8B4E6D7010AD8B4ECD7070AD8A4120043
:10156600EDD7000E1A6E000E196E16501710D8B46D
:101576001CD0010E186E04D0D89016361736182ACD
:1015860017AEFAD7D89019361A361650145C17507B
:101596001558D8A005D01650145E1750155A198044
:1015A600D89017321632182EEDD719C014F01AC07B
:1015B60015F01200000E166E000E156E135015244F
:1015C600146E14C0F6FF080EF76E0800F5500009F9
:1015D600D8B4120013501524146E14C0F6FF080E6A
:1015E600F76E0800F550E7EC0BF0154A162A16BE02
:1015F600E5D7165005E1100E155CD8B01200DED7FF
:101606001200000E096E000E086E06500824076EC2
:1016160007C0F6FF080EF76E0800F5500009D8B4AB
:10162600120006500824076E07C0F6FF080EF76E74
:101636000800F550F2EC0BF0084A092A09BEE5D776
:10164600095005E1100E085CD8B01200DED7120072
:10165600116E040E4418D8A417D011C010F0F00E65
:1016660010168C500F0B10108C6E11EC0CF0010E36
:101676005EEC0AF011C010F0103AF00E10168C5005
:101686000F0B10108C6E1200080E4418D8A412000E
:1016960011C08CFF1200046E040E4418D8A417D093
:1016A60004C003F0F00E03168C500F0B03108C6E63
:1016B60018EC0CF0010E89EC0AF004C003F0033AB2
:1016C600F00E03168C500F0B03108C6E1200080ED2
:1016D6004418D8A4120004C08CFF12001050111038
:1016E600D8B418D0010E126E04D0D8901036113628
:1016F600122A11AEFAD710500E5C11500F58D8A00E
:1017060004D010500E5E11500F5AD890113210327C
:10171600122EF1D70EC00EF00FC00FF012003E0EC3
:10172600F66E180EF76E000EF86E00EE39F010EE3B
:101736000CF00900F5CFEEFFE550E150FAE100EEBE
:101746001FF01A0EEE6AE806FDE145904592000E7E
:10175600F86E00011BEF04F0146E1450400FDCEC21
:101766000BF0000E156E13501524D96EDA6ADF5091
:10177600010BE7EC0BF013501524D96EDA6AD890FA
:10178600DF32152A070E1564EED712000E5010022E
:10179600F3CF12F0F4CF13F00E501102F3501326CC
:1017A6000F501002F350132612C00EF013C00FF0A4
:1017B6001200126E8D9012502BEC0BF011EC0CF007
:1017C600040E5EEC0AF01200126E8D8012502BECA5
:1017D6000BF011EC0CF0040E5EEC0AF01200056E34
:1017E6008D8005504EEC0BF018EC0CF0040E89ECD5
:1017F6000AF012008D90010E2BEC0BF011EC0CF0A0
:10180600020E5EEC0AF012008D90010E4EEC0BF00B
:1018160018EC0CF0020E89EC0AF012008D82030E11
:10182600E82EFED700F08D9212008D82030EE82E70
:10183600FED700F08D921200001B1F1F0E04000041
:041846002020200836
:020000040020DA
:08000000FFFFFFFFFFFFFFFF00
:020000040030CA
:0E00000000091F1EFF8181FF0FC00FE00F409F
:00000001FF
