:0400000007EF00F016
:0A0008004B82B6ED09F0E2EF0BF0B9
:100800000020202020202020202020202020202008
:1008100020004269656E76656E69646F00456E20E2
:100820005265706F736F00456E657267696100494C
:0F0830006E642E00496E662E004D434C52000040
:100840000F0EC16E000E956EF00E936E000E966E3A
:10085000F00E946EF19E27EC09F0020ED56EF29424
:10086000C20ED76EF70ED66EF28AF28ED58EC40EF9
:10087000D36E40EC0CF0010ED0A6000ED0A8000EF6
:10088000E8A008D040EC0CF0D098270E136E0FECC7
:100890000BF014D0D0A602D0010E01D0000E1B6EBA
:1008A000D0B402D0010E01D0000E1B10E8A006D07B
:1008B00040EC0CF0390E136E0FEC0BF0020E1C6EB8
:1008C000450E1B6EAA0EE82EFED71B2EFCD71C2E43
:1008D000FAD740EC0CF0430E136E000EC4EC0BF094
:1008E000820E2AEC0CF0000E1FEC0CF0120E136EB0
:1008F0000FEC0BF0000E1FEC0CF0C70E2AEC0CF006
:10090000020E1C6EE70E1B6E000EE82EFED71B2E8D
:10091000FCD71C2EFAD700D0800E2AEC0CF0010E6A
:10092000136E0FEC0BF0000E8A6E000E2E6E000E92
:100930002D6E9AEC08F03A6EF5EC09F0430E3A1879
:10094000D8A434D0C00E2AEC0CF0200E416E200E3C
:10095000406E200E3F6E000E386E000E376E000E99
:10096000366E000E356E000E346E000E336E000EC5
:10097000296E000E2A6E000E2B6E000E2C6E000EDD
:10098000396E800E2AEC0CF0010E136E0FEC0BF09A
:10099000C00E2AEC0CF0800E2AEC0CF0210E1B6E1F
:1009A000760EE82EFED71B2EFCD7C1D3200E4018A2
:1009B000D8B408D0200E3F18D8B404D0200E411867
:1009C000D8A4B5D0200E4118D8A433D02B0E3A1895
:1009D000D8B414D02D0E3A18D8B410D02F0E3A181F
:1009E000D8B40CD0780E3A18D8B408D0210E3A18E2
:1009F000D8B404D05E0E3A18D8A41BD03D0E3A18D5
:100A0000D8B417D0200E4018D8B413D0200E3F18F9
:100A1000D8A40FD0810E2AEC0CF03A501FEC0CF049
:100A20003AC041F0210E3A18D8A47AD3410E3F6E55
:100A300077D3200E4018D8A437D02B0E3A18D8B44C
:100A400033D02D0E3A18D8B42FD02F0E3A18D8B470
:100A50002BD0780E3A18D8B427D03D0E3A18D8B417
:100A600023D0430E3A18D8B41FD0210E3A18D8B468
:100A70001BD05E0E3A18D8B417D03D0E3A18D8B431
:100A800013D0200E4118D8A40FD0800E2AEC0CF001
:100A90003A501FEC0CF03AC040F0D00E3A24376EBA
:100AA000386AFF0E38223CD3200E3F18D8A438D322
:100AB000200E4118D8B434D3210E4118D8B430D305
:100AC000200E4018D8B42CD32B0E3A18D8B428D303
:100AD0002D0E3A18D8B424D32F0E3A18D8B420D3F8
:100AE000780E3A18D8B41CD33D0E3A18D8B418D39F
:100AF000430E3A18D8B414D3210E3A18D8B410D3F0
:100B00005E0E3A18D8B40CD33D0E3A18D8B408D3B8
:100B1000820E2AEC0CF03A501FEC0CF03AC03FF079
:100B2000D00E3A24356E366AFF0E3622F9D23D0ECB
:100B30003A18D8A4F2D2200E4018D8B4EED2200E23
:100B40004118D8B4EAD2200E3F18D8B4E6D2210E0C
:100B50004118D8A404D0820E2AEC0CF003D0830EE6
:100B60002AEC0CF03D0E1FEC0CF0FBD03550372476
:100B70001B6E365038201C6E1BC025F01CC026F0A2
:100B8000276A286A25C00EF026C00FF027C010F093
:100B900028C011F0640E126E000E136E000E146E5B
:100BA000000E156E65EC0AF00EC029F00FC02AF099
:100BB00010C02BF011C02CF0E8D03550375C1B6E04
:100BC00036503858D8D737C00EF038C00FF035C07F
:100BD00010F036C011F0FFEC0BF00EC025F00FC086
:100BE00026F0CED735503610D8B42FD03750381025
:100BF000D8B4CBD037C014F038C015F035C016F0DB
:100C000036C017F0E6EC0AF014C025F015C026F047
:100C1000276A286A37C00EF038C00FF0000E116E38
:100C2000640E106EFFEC0BF00EC014F00FC015F048
:100C300035C016F036C017F0E6EC0AF014C029F003
:100C400015C02AF02B6A2C6AA0D037503810D8B4BF
:100C500006D035503610D8A402D0E80E09D037504F
:100C60003810D8A48FD735503610D8A48BD7E90EBA
:100C7000256E030E07D037503810D8A409D0010EC6
:100C8000256E000E266E000E276E000E286E7AD797
:100C900037C025F038C026F0276A286A21D0FF0E19
:100CA00037241B6EFF0E38201C6E1BC00EF01CC0BC
:100CB0000FF0106A116A25C012F026C013F027C089
:100CC00014F028C015F065EC0AF00EC025F00FC036
:100CD00026F010C027F011C028F03706D8A038063B
:100CE0003850DDE1020E375CD8A04CD7D8D737C0DA
:100CF00025F038C026F0276A286A35503610D8B457
:100D0000BED7FF0E3524356EFF0E3620366E1BD053
:100D100037C00EF038C00FF0106A116A25C012F00B
:100D200026C013F027C014F028C015F065EC0AF0B7
:100D30000EC025F00FC026F010C027F011C028F01B
:100D40003506D8A0360635503610D8B41BD7E0D7B4
:100D5000000E256E000E266E000E276E000E286E09
:100D600014D04150210AD8B486D70A0AD8B4FED686
:100D7000060AD8B422D7020AD8B434D7710AD8B434
:100D8000B6D7260AD8B41FD7E3D7210E4118D8A466
:100D900004D0830E2AEC0CF003D0840E2AEC0CF065
:100DA00025C00EF026C00FF027C010F028C011F0AB
:100DB0009C0E126EFF0E136EFF0E146EFF0E156E5C
:100DC00065EC0AF029500E241B6E2A500F201C6E71
:100DD0002B5010201D6E2C5011201E6E1B501C100D
:100DE0001D101E10D8B47AD025C00EF026C00FF00A
:100DF00027C010F028C011F09C0E126EFF0E136E6B
:100E0000FF0E146EFF0E156E65EC0AF029500E24CD
:100E10001B6E2A500F201C6E2B5010201D6E2C5064
:100E200011201E6E1B501C101D101E10D8B456D061
:100E3000000E226E000E216E22BE08D0225005E167
:100E4000030E215CD8B06CD101D06AD137C014F048
:100E500038C015F035C016F036C017F0E6EC0AF0D1
:100E600014C025F015C026F0276A286A37C00EF096
:100E700038C00FF035C010F036C011F0A3EC0BF005
:100E80000EC03BF00FC03CF03D6A3E6A2550300F6B
:100E90001FEC0CF021502210D8A409D03B503C107C
:100EA0003D103E10D8B403D02C0E1FEC0CF03B507C
:100EB0003C103D103E10D8B433D13BC00EF03CC0C6
:100EC0000FF0000E116E0A0E106EFFEC0BF00EC04C
:100ED00037F00FC038F0214A222AAED72850271009
:100EE000261004E1520E255CD8A029D0E80E251862
:100EF00006E1030E261827102810D8B420D0E90EDA
:100F0000251806E1030E261827102810D8B417D08C
:100F10002D0E4118D8A413D02D0E1FEC0CF0850E09
:100F20002AEC0CF0281E271E261E256C000E2622F9
:100F3000272228222550300F1FEC0CF0F1D0E80EAC
:100F400025180BE1030E261827102810D8A405D069
:100F5000340E136E0FEC0BF0E3D0E90E25180BE105
:100F6000030E261827102810D8A405D02F0E136EB4
:100F70000FEC0BF0D5D028502710261004E10A0EF4
:100F8000255CD8A0C5D0E80E251806E1030E26186A
:100F900027102810D8B4BCD0E90E251806E1030E9E
:100FA000261827102810D8B4B3D0000E246E090ECE
:100FB000236E24BEB5D00A0E296E000E2A6E000ED6
:100FC0002B6E000E2C6EFF0E23241F6EFF0E2420AE
:100FD000206E20BE23D0205003E11F04D8A01ED0D5
:100FE00029C00EF02AC00FF02BC010F02CC011F059
:100FF0000A0E126E000E136E000E146E000E156EA9
:1010000065EC0AF00EC029F00FC02AF010C02BF0DA
:1010100011C02CF01F06D8A02006DBD725C00EF08B
:1010200026C00FF027C010F028C011F029C012F020
:101030002AC013F02BC014F02CC015F075EC09F089
:101040000E500F1010101110D8B433D0010E396E9D
:1010500025C00EF026C00FF027C010F028C011F0F8
:1010600029C012F02AC013F02BC014F02CC015F0C8
:1010700075EC09F00E50300F1FEC0CF025C00EF08F
:1010800026C00FF027C010F028C011F029C012F0C0
:101090002AC013F02BC014F02CC015F032EC0AF06B
:1010A0000EC025F00FC026F010C027F011C028F0A8
:1010B0002BD025C00EF026C00FF027C010F028C09E
:1010C00011F029C012F02AC013F02BC014F02CC06C
:1010D00015F075EC09F00E500F1010101110D8A477
:1010E00013D03950D8B410D028502710261009E159
:1010F0000A0E255CD8B005D02550300F1FEC0CF03F
:1011000003D0300E1FEC0CF02306D8A0240651D7D4
:101110002550300F1FEC0CF003D0200E1FEC0CF00C
:10112000E40E1B6E440EE82EFED71B2EFCD700D01B
:1011300093EF04F081B881AA04D081AC02D081BEC3
:10114000F9D7000E2E6E010E2D6EFE0E8A6E81B83E
:1011500002D0310E120081BA02D0320E120081BCD0
:1011600002D0330E120082BC02D0010E01D0000E5C
:101170000E6E81BE02D0010E01D0000E0E14E8A04A
:1011800002D02B0E120082AC02D0010E01D0000E54
:101190000E6E81BE02D0010E01D0000E0E14E8A02A
:1011A00002D0210E1200FD0E8A6E81B802D0340EDC
:1011B000120081BA02D0350E120081BC02D0360E68
:1011C000120082BC02D0010E01D0000E0E6E81BE54
:1011D00002D0010E01D0000E0E14E8A002D02D0E98
:1011E000120082AC02D0010E01D0000E0E6E81BE44
:1011F00002D0010E01D0000E0E14E8A002D05E0E47
:101200001200FB0E8A6E81B802D0370E120081BA2E
:1012100002D0380E120081BC02D0390E120081BEFD
:1012200002D02F0E1200F70E8A6E81B802D0430E44
:10123000120081BA02D0300E120081BC02D03D0EE5
:10124000120081BE02D0780E1200200E12008D9086
:10125000040E4218D8A404D08C500F0B300901D0D2
:101260003F0E8C6E54EC0CF0010E90EC0AF0040E64
:101270004218D8A404D08C500F0B300901D03F0E77
:101280008C6E54EC0CF0030E90EC0AF0040E421835
:10129000D8A404D08C500F0B300901D03F0E8C6EB7
:1012A00054EC0CF0040E90EC0AF0040E4218D8A492
:1012B00011D08C500F0B20098C6E54EC0CF0040EE6
:1012C00090EC0AF02F0E5DEC0BF054EC0CF0040ED9
:1012D00090EC0AF040EC0CF00F0E5DEC0BF054ECCF
:1012E0000CF0040E90EC0AF01200000E166E000EC8
:1012F000176E000E186E000E196E12501310141097
:101300001510D8B42AD0010E1A6E06D0D890123615
:101310001336143615361A2A15AEF8D7D890163665
:1013200017361836193612500E5C13500F581450D9
:10133000105815501158D8A009D012500E5E1350F5
:101340000F5A1450105A1550115A1680D890153251
:101350001432133212321A2EE1D716C00EF017C013
:101360000FF018C010F019C011F012000600F6CFEF
:101370000AF0F7CF0BF0F8CF0CF0F5CF0DF0F2A498
:1013800019D02D502E10D8A407D0010E2F242F6E67
:10139000000E3020306E04D0000E306E000E2F6E26
:1013A000F2948DB402D08D8401D08D94C20ED76E8C
:1013B000F70ED66E140E2F183010D8A40CD02D5066
:1013C0002E10D8A408D04AEC0CF01D0E066E36EC98
:1013D0000BF00300FFD70DC0F5FF0CC0F8FF0BC0EA
:1013E000F7FF0AC0F6FF4B921100080E31183210B9
:1013F000D8A414D0000E326E000E316E0FD0000E45
:101400000BD0050E09D0060E07D0030E05D0020E34
:1014100003D0040E01D0070E8B6E21D031C00EF028
:1014200032C00FF00F50000AD8A419D00E50000A95
:10143000D8B4E5D7010AD8B4E4D7030AD8B4E3D7BF
:10144000010AD8B4E2D7070AD8B4E1D7010AD8B460
:10145000DAD7030AD8B4DDD7010AD8B4DCD7314AC9
:10146000322A12001250131014101510D8B424D0C0
:10147000010E166E06D0D890123613361436153675
:10148000162A15AEF8D712500E5C13500F58145090
:10149000105815501158D8A008D012500E5E135095
:1014A0000F5A1450105A1550115AD8901532143240
:1014B00013321232162EE7D70EC00EF00FC00FF007
:1014C00010C010F011C011F01200000E166E000EC8
:1014D000176E000E186E000E196E0EA008D0125076
:1014E0001626135017221450182215501922D8907E
:1014F0001236133614361536D890113210320F3298
:101500000E320E500F1010101110D8A4E6D716C0CE
:101510000EF017C00FF018C010F019C011F0120033
:101520000F6E1BD0050E0E6EDE0EE82EFED70E2EB1
:10153000FCD71200530EE82EFED700F0350EE82E31
:10154000FED700F01200080EE82EFED700F01200C1
:10155000030EE82EFED700F012000F50010AD8B497
:10156000E1D7030AD8B4E6D7010AD8B4ECD7070A02
:10157000D8A41200EDD7026E1BD0050E016EDE0E50
:10158000E82EFED7012EFCD71200530EE82EFED710
:1015900000F0350EE82EFED700F01200080EE82EFF
:1015A000FED700F01200030EE82EFED700F0120066
:1015B0000250010AD8B4E1D7030AD8B4E6D7010A29
:1015C000D8B4ECD7070AD8A41200EDD7000E196ED4
:1015D000000E186E16501710D8B41CD0010E1A6EDB
:1015E00004D0D890163617361A2A17AEFAD7D890E4
:1015F000183619361650145C17501558D8A005D057
:101600001650145E1750155A1880D890173216329B
:101610001A2EEDD718C014F019C015F01200000EE4
:10162000166E000E156E13501524146E14C0F6FFBE
:10163000080EF76E0800F5500009D8B412001350D8
:101640001524146E14C0F6FF080EF76E0800F5504E
:101650001FEC0CF0154A162A16BEE5D7165005E108
:10166000100E155CD8B01200DED71200000E096E05
:10167000000E086E06500824076E07C0F6FF080E1D
:10168000F76E0800F5500009D8B41200065008247F
:10169000076E07C0F6FF080EF76E0800F55035EC30
:1016A0000CF0084A092A09BEE5D7095005E1100ED9
:1016B000085CD8B01200DED71200116E040E42187A
:1016C000D8A417D011C010F0F00E10168C500F0BCC
:1016D00010108C6E54EC0CF0010E90EC0AF011C05E
:1016E00010F0103AF00E10168C500F0B10108C6E7C
:1016F0001200080E4218D8A4120011C08CFF12006C
:10170000046E040E4218D8A417D004C003F0F00EE3
:1017100003168C500F0B03108C6E5BEC0CF0010E5B
:10172000BBEC0AF004C003F0033AF00E03168C5031
:101730000F0B03108C6E1200080E4218D8A4120072
:1017400004C08CFF120010501110D8B418D0010E34
:10175000126E04D0D89010361136122A11AEFAD774
:1017600010500E5C11500F58D8A004D010500E5ECF
:1017700011500F5AD89011321032122EF1D70EC0DC
:101780000EF00FC00FF01200146E1450080DF3503D
:10179000400F12EC0CF0000E166E000E156E13507A
:1017A0001524D96EDA6ADF501FEC0CF0154A162AA0
:1017B00016BEF5D7165005E1080E155CD8B012001C
:1017C000EED71200C40EF66E180EF76E000EF86E0D
:1017D00000EE3FF010EE0CF00900F5CFEEFFE55003
:1017E000E150FAE100EE25F01A0EEE6AE806FDE19E
:1017F0004B904B92000EF86E000120EF04F00E505B
:101800001002F3CF12F0F4CF13F00E501102F35088
:1018100013260F501002F350132612C00EF013C0FF
:101820000FF012000E6E8D900EC08CFF8D8200F0B6
:101830008D9200F0A60EE82EFED700D01200126E98
:101840008D8012505DEC0BF054EC0CF0040E90EC1B
:101850000AF01200126E8D9012505DEC0BF054ECF9
:101860000CF0040E90EC0AF01200056E8D8005500D
:1018700080EC0BF05BEC0CF0040EBBEC0AF01200F9
:101880008D90010E5DEC0BF054EC0CF0020E90EC20
:101890000AF012008D90010E80EC0BF05BEC0CF066
:1018A000020EBBEC0AF012008D82030EE82EFED76A
:1018B00000F08D9212008D82030EE82EFED700F00C
:1018C0008D92120020202008000A0A0A001F0E0034
:020000040020DA
:08000000FFFFFFFFFFFFFFFF00
:020000040030CA
:0E00000000091F1EFF8181FF0FC00FE00F409F
:00000001FF
